{
  "contractName": "XdacToken",
  "abi": [
    {
      "constant": true,
      "inputs": [],
      "name": "name",
      "outputs": [
        {
          "name": "",
          "type": "string"
        }
      ],
      "payable": false,
      "stateMutability": "view",
      "type": "function"
    },
    {
      "constant": false,
      "inputs": [
        {
          "name": "_spender",
          "type": "address"
        },
        {
          "name": "_value",
          "type": "uint256"
        }
      ],
      "name": "approve",
      "outputs": [
        {
          "name": "",
          "type": "bool"
        }
      ],
      "payable": false,
      "stateMutability": "nonpayable",
      "type": "function"
    },
    {
      "constant": true,
      "inputs": [],
      "name": "totalSupply",
      "outputs": [
        {
          "name": "",
          "type": "uint256"
        }
      ],
      "payable": false,
      "stateMutability": "view",
      "type": "function"
    },
    {
      "constant": false,
      "inputs": [
        {
          "name": "_from",
          "type": "address"
        },
        {
          "name": "_to",
          "type": "address"
        },
        {
          "name": "_value",
          "type": "uint256"
        }
      ],
      "name": "transferFrom",
      "outputs": [
        {
          "name": "",
          "type": "bool"
        }
      ],
      "payable": false,
      "stateMutability": "nonpayable",
      "type": "function"
    },
    {
      "constant": true,
      "inputs": [],
      "name": "decimals",
      "outputs": [
        {
          "name": "",
          "type": "uint8"
        }
      ],
      "payable": false,
      "stateMutability": "view",
      "type": "function"
    },
    {
      "constant": false,
      "inputs": [
        {
          "name": "_spender",
          "type": "address"
        },
        {
          "name": "_subtractedValue",
          "type": "uint256"
        }
      ],
      "name": "decreaseApproval",
      "outputs": [
        {
          "name": "",
          "type": "bool"
        }
      ],
      "payable": false,
      "stateMutability": "nonpayable",
      "type": "function"
    },
    {
      "constant": true,
      "inputs": [
        {
          "name": "_owner",
          "type": "address"
        }
      ],
      "name": "balanceOf",
      "outputs": [
        {
          "name": "balance",
          "type": "uint256"
        }
      ],
      "payable": false,
      "stateMutability": "view",
      "type": "function"
    },
    {
      "constant": true,
      "inputs": [],
      "name": "owner",
      "outputs": [
        {
          "name": "",
          "type": "address"
        }
      ],
      "payable": false,
      "stateMutability": "view",
      "type": "function"
    },
    {
      "constant": true,
      "inputs": [],
      "name": "symbol",
      "outputs": [
        {
          "name": "",
          "type": "string"
        }
      ],
      "payable": false,
      "stateMutability": "view",
      "type": "function"
    },
    {
      "constant": false,
      "inputs": [
        {
          "name": "_to",
          "type": "address"
        },
        {
          "name": "_value",
          "type": "uint256"
        }
      ],
      "name": "transfer",
      "outputs": [
        {
          "name": "",
          "type": "bool"
        }
      ],
      "payable": false,
      "stateMutability": "nonpayable",
      "type": "function"
    },
    {
      "constant": false,
      "inputs": [
        {
          "name": "_spender",
          "type": "address"
        },
        {
          "name": "_addedValue",
          "type": "uint256"
        }
      ],
      "name": "increaseApproval",
      "outputs": [
        {
          "name": "",
          "type": "bool"
        }
      ],
      "payable": false,
      "stateMutability": "nonpayable",
      "type": "function"
    },
    {
      "constant": true,
      "inputs": [
        {
          "name": "_owner",
          "type": "address"
        },
        {
          "name": "_spender",
          "type": "address"
        }
      ],
      "name": "allowance",
      "outputs": [
        {
          "name": "",
          "type": "uint256"
        }
      ],
      "payable": false,
      "stateMutability": "view",
      "type": "function"
    },
    {
      "constant": false,
      "inputs": [
        {
          "name": "newOwner",
          "type": "address"
        }
      ],
      "name": "transferOwnership",
      "outputs": [],
      "payable": false,
      "stateMutability": "nonpayable",
      "type": "function"
    },
    {
      "inputs": [
        {
          "name": "_initial_supply",
          "type": "uint256"
        }
      ],
      "payable": false,
      "stateMutability": "nonpayable",
      "type": "constructor"
    },
    {
      "anonymous": false,
      "inputs": [
        {
          "indexed": true,
          "name": "previousOwner",
          "type": "address"
        },
        {
          "indexed": true,
          "name": "newOwner",
          "type": "address"
        }
      ],
      "name": "OwnershipTransferred",
      "type": "event"
    },
    {
      "anonymous": false,
      "inputs": [
        {
          "indexed": true,
          "name": "owner",
          "type": "address"
        },
        {
          "indexed": true,
          "name": "spender",
          "type": "address"
        },
        {
          "indexed": false,
          "name": "value",
          "type": "uint256"
        }
      ],
      "name": "Approval",
      "type": "event"
    },
    {
      "anonymous": false,
      "inputs": [
        {
          "indexed": true,
          "name": "from",
          "type": "address"
        },
        {
          "indexed": true,
          "name": "to",
          "type": "address"
        },
        {
          "indexed": false,
          "name": "value",
          "type": "uint256"
        }
      ],
      "name": "Transfer",
      "type": "event"
    }
  ],
  "bytecode": "0x606060405260408051908101604052600981527f5844414320434f494e00000000000000000000000000000000000000000000006020820152600490805161004b929160200190610134565b5060408051908101604052600481527f584441430000000000000000000000000000000000000000000000000000000060208201526005908051610093929160200190610134565b506006805460ff1916601217905534156100ac57600080fd5b604051602080610be28339810160405280805160038054600160a060020a03191633600160a060020a03169081179091556001829055600081815260208190526040808220849055929450909250907fddf252ad1be2c89b69c2b068fc378daa952ba7f163c4a11628f55a4df523b3ef9084905190815260200160405180910390a3506101cf565b828054600181600116156101000203166002900490600052602060002090601f016020900481019282601f1061017557805160ff19168380011785556101a2565b828001600101855582156101a2579182015b828111156101a2578251825591602001919060010190610187565b506101ae9291506101b2565b5090565b6101cc91905b808211156101ae57600081556001016101b8565b90565b610a04806101de6000396000f3006060604052600436106100c45763ffffffff7c010000000000000000000000000000000000000000000000000000000060003504166306fdde0381146100c9578063095ea7b31461015357806318160ddd1461018957806323b872dd146101ae578063313ce567146101d657806366188463146101ff57806370a08231146102215780638da5cb5b1461024057806395d89b411461026f578063a9059cbb14610282578063d73dd623146102a4578063dd62ed3e146102c6578063f2fde38b146102eb575b600080fd5b34156100d457600080fd5b6100dc61030c565b60405160208082528190810183818151815260200191508051906020019080838360005b83811015610118578082015183820152602001610100565b50505050905090810190601f1680156101455780820380516001836020036101000a031916815260200191505b509250505060405180910390f35b341561015e57600080fd5b610175600160a060020a03600435166024356103aa565b604051901515815260200160405180910390f35b341561019457600080fd5b61019c610416565b60405190815260200160405180910390f35b34156101b957600080fd5b610175600160a060020a036004358116906024351660443561041c565b34156101e157600080fd5b6101e961059c565b60405160ff909116815260200160405180910390f35b341561020a57600080fd5b610175600160a060020a03600435166024356105a5565b341561022c57600080fd5b61019c600160a060020a036004351661069f565b341561024b57600080fd5b6102536106ba565b604051600160a060020a03909116815260200160405180910390f35b341561027a57600080fd5b6100dc6106c9565b341561028d57600080fd5b610175600160a060020a0360043516602435610734565b34156102af57600080fd5b610175600160a060020a0360043516602435610846565b34156102d157600080fd5b61019c600160a060020a03600435811690602435166108ea565b34156102f657600080fd5b61030a600160a060020a0360043516610915565b005b60048054600181600116156101000203166002900480601f0160208091040260200160405190810160405280929190818152602001828054600181600116156101000203166002900480156103a25780601f10610377576101008083540402835291602001916103a2565b820191906000526020600020905b81548152906001019060200180831161038557829003601f168201915b505050505081565b600160a060020a03338116600081815260026020908152604080832094871680845294909152808220859055909291907f8c5be1e5ebec7d5bd14f71427d1e84f3dd0314c0f7b2291e5b200ac8c7c3b9259085905190815260200160405180910390a350600192915050565b60015490565b6000600160a060020a038316151561043357600080fd5b600160a060020a03841660009081526020819052604090205482111561045857600080fd5b600160a060020a038085166000908152600260209081526040808320339094168352929052205482111561048b57600080fd5b600160a060020a0384166000908152602081905260409020546104b4908363ffffffff6109b016565b600160a060020a0380861660009081526020819052604080822093909355908516815220546104e9908363ffffffff6109c216565b600160a060020a038085166000908152602081815260408083209490945587831682526002815283822033909316825291909152205461052f908363ffffffff6109b016565b600160a060020a03808616600081815260026020908152604080832033861684529091529081902093909355908516917fddf252ad1be2c89b69c2b068fc378daa952ba7f163c4a11628f55a4df523b3ef9085905190815260200160405180910390a35060019392505050565b60065460ff1681565b600160a060020a0333811660009081526002602090815260408083209386168352929052908120548083111561060257600160a060020a033381166000908152600260209081526040808320938816835292905290812055610639565b610612818463ffffffff6109b016565b600160a060020a033381166000908152600260209081526040808320938916835292905220555b600160a060020a0333811660008181526002602090815260408083209489168084529490915290819020547f8c5be1e5ebec7d5bd14f71427d1e84f3dd0314c0f7b2291e5b200ac8c7c3b925915190815260200160405180910390a35060019392505050565b600160a060020a031660009081526020819052604090205490565b600354600160a060020a031681565b60058054600181600116156101000203166002900480601f0160208091040260200160405190810160405280929190818152602001828054600181600116156101000203166002900480156103a25780601f10610377576101008083540402835291602001916103a2565b6000600160a060020a038316151561074b57600080fd5b600160a060020a03331660009081526020819052604090205482111561077057600080fd5b600160a060020a033316600090815260208190526040902054610799908363ffffffff6109b016565b600160a060020a0333811660009081526020819052604080822093909355908516815220546107ce908363ffffffff6109c216565b60008085600160a060020a0316600160a060020a031681526020019081526020016000208190555082600160a060020a031633600160a060020a03167fddf252ad1be2c89b69c2b068fc378daa952ba7f163c4a11628f55a4df523b3ef8460405190815260200160405180910390a350600192915050565b600160a060020a03338116600090815260026020908152604080832093861683529290529081205461087e908363ffffffff6109c216565b600160a060020a0333811660008181526002602090815260408083209489168084529490915290819020849055919290917f8c5be1e5ebec7d5bd14f71427d1e84f3dd0314c0f7b2291e5b200ac8c7c3b92591905190815260200160405180910390a350600192915050565b600160a060020a03918216600090815260026020908152604080832093909416825291909152205490565b60035433600160a060020a0390811691161461093057600080fd5b600160a060020a038116151561094557600080fd5b600354600160a060020a0380831691167f8be0079c531659141344cd1fd0a4f28419497f9722a3daafe3b4186f6b6457e060405160405180910390a36003805473ffffffffffffffffffffffffffffffffffffffff1916600160a060020a0392909216919091179055565b6000828211156109bc57fe5b50900390565b6000828201838110156109d157fe5b93925050505600a165627a7a72305820963e00c09313bac9eb0f9ec37147870fc746090097f25a323081dc2758d806e60029",
  "source": "pragma solidity ^0.4.13;\n\nimport \"../node_modules/zeppelin-solidity/contracts/token/ERC20/StandardToken.sol\";\nimport \"../node_modules/zeppelin-solidity/contracts/ownership/Ownable.sol\";\n\ncontract XdacToken is StandardToken, Ownable {\n    string public name = \"XDAC COIN\";\n    string public symbol = \"XDAC\";\n    uint8 public decimals = 18;\n    /**\n     * @dev Constructor that gives msg.sender all of existing tokens.\n     */\n    function XdacToken(uint256 _initial_supply) public {\n        totalSupply_ = _initial_supply;\n        balances[msg.sender] = _initial_supply;\n        Transfer(0x0, msg.sender, _initial_supply);\n    }\n}\n",
  "sourcePath": "/var/www/xdac-sandbox/contracts/XdacToken.sol",
  "compiler": {
    "name": "solc",
    "version": "0.4.19+commit.c4cbbb05.Emscripten.clang"
  },
  "schemaVersion": "2.0.0",
  "updatedAt": "2018-03-22T09:32:58.833Z"
}