{
  "contractName": "XdacTokenCrowdsale",
  "abi": [
    {
      "constant": true,
      "inputs": [
        {
          "name": "",
          "type": "address"
        }
      ],
      "name": "contributors",
      "outputs": [
        {
          "name": "eth",
          "type": "uint256"
        },
        {
          "name": "whitelisted",
          "type": "bool"
        },
        {
          "name": "created",
          "type": "bool"
        }
      ],
      "payable": false,
      "stateMutability": "view",
      "type": "function"
    },
    {
      "constant": true,
      "inputs": [],
      "name": "wallet",
      "outputs": [
        {
          "name": "",
          "type": "address"
        }
      ],
      "payable": false,
      "stateMutability": "view",
      "type": "function"
    },
    {
      "constant": true,
      "inputs": [],
      "name": "owner",
      "outputs": [
        {
          "name": "",
          "type": "address"
        }
      ],
      "payable": false,
      "stateMutability": "view",
      "type": "function"
    },
    {
      "constant": false,
      "inputs": [
        {
          "name": "newOwner",
          "type": "address"
        }
      ],
      "name": "transferOwnership",
      "outputs": [],
      "payable": false,
      "stateMutability": "nonpayable",
      "type": "function"
    },
    {
      "constant": true,
      "inputs": [],
      "name": "token",
      "outputs": [
        {
          "name": "",
          "type": "address"
        }
      ],
      "payable": false,
      "stateMutability": "view",
      "type": "function"
    },
    {
      "constant": true,
      "inputs": [],
      "name": "weiDelivered",
      "outputs": [
        {
          "name": "",
          "type": "uint256"
        }
      ],
      "payable": false,
      "stateMutability": "view",
      "type": "function"
    },
    {
      "inputs": [
        {
          "name": "_wallet",
          "type": "address"
        },
        {
          "name": "_roundGoals",
          "type": "uint256[]"
        },
        {
          "name": "_roundRates",
          "type": "uint256[]"
        },
        {
          "name": "_minContribution",
          "type": "uint256"
        },
        {
          "name": "_initial_supply",
          "type": "uint256"
        }
      ],
      "payable": false,
      "stateMutability": "nonpayable",
      "type": "constructor"
    },
    {
      "payable": true,
      "stateMutability": "payable",
      "type": "fallback"
    },
    {
      "anonymous": false,
      "inputs": [
        {
          "indexed": true,
          "name": "purchaser",
          "type": "address"
        },
        {
          "indexed": false,
          "name": "amount",
          "type": "uint256"
        }
      ],
      "name": "TokenRefund",
      "type": "event"
    },
    {
      "anonymous": false,
      "inputs": [
        {
          "indexed": true,
          "name": "purchaser",
          "type": "address"
        },
        {
          "indexed": true,
          "name": "contributor",
          "type": "address"
        },
        {
          "indexed": false,
          "name": "value",
          "type": "uint256"
        },
        {
          "indexed": false,
          "name": "amount",
          "type": "uint256"
        }
      ],
      "name": "TokenPurchase",
      "type": "event"
    },
    {
      "anonymous": false,
      "inputs": [
        {
          "indexed": true,
          "name": "previousOwner",
          "type": "address"
        },
        {
          "indexed": true,
          "name": "newOwner",
          "type": "address"
        }
      ],
      "name": "OwnershipTransferred",
      "type": "event"
    },
    {
      "constant": false,
      "inputs": [
        {
          "name": "_contributor",
          "type": "address"
        }
      ],
      "name": "buyTokens",
      "outputs": [],
      "payable": true,
      "stateMutability": "payable",
      "type": "function"
    },
    {
      "constant": false,
      "inputs": [
        {
          "name": "_contributors",
          "type": "address[]"
        }
      ],
      "name": "whitelistAddresses",
      "outputs": [],
      "payable": false,
      "stateMutability": "nonpayable",
      "type": "function"
    },
    {
      "constant": false,
      "inputs": [
        {
          "name": "_contributor",
          "type": "address"
        }
      ],
      "name": "whitelistAddress",
      "outputs": [],
      "payable": false,
      "stateMutability": "nonpayable",
      "type": "function"
    },
    {
      "constant": false,
      "inputs": [
        {
          "name": "_newOwner",
          "type": "address"
        }
      ],
      "name": "transferTokenOwnership",
      "outputs": [
        {
          "name": "success",
          "type": "bool"
        }
      ],
      "payable": false,
      "stateMutability": "nonpayable",
      "type": "function"
    },
    {
      "constant": false,
      "inputs": [
        {
          "name": "_address",
          "type": "address"
        },
        {
          "name": "_amountTokens",
          "type": "uint256"
        }
      ],
      "name": "sendToken",
      "outputs": [
        {
          "name": "success",
          "type": "bool"
        }
      ],
      "payable": false,
      "stateMutability": "nonpayable",
      "type": "function"
    },
    {
      "constant": false,
      "inputs": [
        {
          "name": "_addresses",
          "type": "address[]"
        },
        {
          "name": "_amountTokens",
          "type": "uint256[]"
        }
      ],
      "name": "sendTokens",
      "outputs": [
        {
          "name": "success",
          "type": "bool"
        }
      ],
      "payable": false,
      "stateMutability": "nonpayable",
      "type": "function"
    },
    {
      "constant": false,
      "inputs": [
        {
          "name": "_contributor",
          "type": "address"
        }
      ],
      "name": "refundTokensForAddress",
      "outputs": [],
      "payable": false,
      "stateMutability": "nonpayable",
      "type": "function"
    },
    {
      "constant": true,
      "inputs": [],
      "name": "getAddresses",
      "outputs": [
        {
          "name": "",
          "type": "address[]"
        }
      ],
      "payable": false,
      "stateMutability": "view",
      "type": "function"
    },
    {
      "constant": false,
      "inputs": [],
      "name": "refundTokens",
      "outputs": [],
      "payable": false,
      "stateMutability": "nonpayable",
      "type": "function"
    },
    {
      "constant": true,
      "inputs": [
        {
          "name": "_weiAmount",
          "type": "uint256"
        }
      ],
      "name": "getTokenAmount",
      "outputs": [
        {
          "name": "",
          "type": "uint256"
        }
      ],
      "payable": false,
      "stateMutability": "view",
      "type": "function"
    },
    {
      "constant": true,
      "inputs": [
        {
          "name": "_tokenAmount",
          "type": "uint256"
        }
      ],
      "name": "getEthAmount",
      "outputs": [
        {
          "name": "",
          "type": "uint256"
        }
      ],
      "payable": false,
      "stateMutability": "view",
      "type": "function"
    },
    {
      "constant": true,
      "inputs": [],
      "name": "getCurrentRate",
      "outputs": [
        {
          "name": "",
          "type": "uint256"
        }
      ],
      "payable": false,
      "stateMutability": "view",
      "type": "function"
    }
  ],
  "bytecode": "0x606060405234156200001057600080fd5b60405162001f7738038062001f7783398101604052808051919060200180518201919060200180518201919060200180519190602001805160008054600160a060020a03191633600160a060020a03908116919091179091559092508616151590506200007c57600080fd5b82516005146200008b57600080fd5b83516005146200009a57600080fd5b6001848051620000af9291602001906200012e565b506002838051620000c59291602001906200012e565b50600382905580620000d66200017e565b908152602001604051809103906000f0801515620000f357600080fd5b60048054600160a060020a03928316600160a060020a031991821617909155600580549790921696169590951790945550620001af92505050565b8280548282559060005260206000209081019282156200016c579160200282015b828111156200016c5782518255916020019190600101906200014f565b506200017a9291506200018f565b5090565b604051610be2806200139583390190565b620001ac91905b808211156200017a576000815560010162000196565b90565b6111d680620001bf6000396000f3006060604052600436106100e25763ffffffff60e060020a6000350416631f6d494281146100ed57806321e6b53d146101325780632bf0430414610165578063412664ae146101b457806341566585146101d6578063521eb273146101f557806371007509146102245780638aabe700146102375780638da5cb5b146102565780638fc7a25d14610269578063a39fac1214610291578063c2507ac1146102f7578063d8b66ae11461030d578063ec8ac4d81461039c578063f2fde38b146103b0578063f7fb07b0146103cf578063fc0c546a146103e2578063fc12dfc7146103f5575b6100eb33610408565b005b34156100f857600080fd5b61010c600160a060020a03600435166104d8565b604051928352901515602083015215156040808301919091526060909101905180910390f35b341561013d57600080fd5b610151600160a060020a03600435166104fd565b604051901515815260200160405180910390f35b341561017057600080fd5b6100eb60046024813581810190830135806020818102016040519081016040528093929190818152602001838360200280828437509496506106c195505050505050565b34156101bf57600080fd5b610151600160a060020a0360043516602435610710565b34156101e157600080fd5b6100eb600160a060020a036004351661073f565b341561020057600080fd5b610208610766565b604051600160a060020a03909116815260200160405180910390f35b341561022f57600080fd5b6100eb610775565b341561024257600080fd5b6100eb600160a060020a0360043516610780565b341561026157600080fd5b6102086107a4565b341561027457600080fd5b61027f6004356107b3565b60405190815260200160405180910390f35b341561029c57600080fd5b6102a46107c4565b60405160208082528190810183818151815260200191508051906020019060200280838360005b838110156102e35780820151838201526020016102cb565b505050509050019250505060405180910390f35b341561030257600080fd5b61027f600435610848565b341561031857600080fd5b61015160046024813581810190830135806020818102016040519081016040528093929190818152602001838360200280828437820191505050505050919080359060200190820180359060200190808060200260200160405190810160405280939291908181526020018383602002808284375094965061085395505050505050565b6100eb600160a060020a0360043516610408565b34156103bb57600080fd5b6100eb600160a060020a03600435166108f0565b34156103da57600080fd5b61027f61098b565b34156103ed57600080fd5b6102086109b2565b341561040057600080fd5b61027f6109c1565b6000600160a060020a038216151561041f57600080fd5b34151561042b57600080fd5b60035434101561043a57600080fd5b60018054600490811061044957fe5b600091825260209091200154600854610468903463ffffffff6109c716565b111561047357600080fd5b61047c346109dd565b905081600160a060020a031633600160a060020a03167f623b3804fa71d67900d064613da8f94b9617215ee90799290593e1745087ad18348460405191825260208201526040908101905180910390a36104d4610b18565b5050565b6006602052600090815260409020805460019091015460ff8082169161010090041683565b60008054819033600160a060020a0390811691161461051b57600080fd5b50600454600160a060020a03168063a9059cbb84826370a0823181638da5cb5b6000604051602001526040518163ffffffff1660e060020a028152600401602060405180830381600087803b151561057257600080fd5b6102c65a03f1151561058357600080fd5b5050506040518051905060006040516020015260405160e060020a63ffffffff8416028152600160a060020a039091166004820152602401602060405180830381600087803b15156105d457600080fd5b6102c65a03f115156105e557600080fd5b5050506040518051905060006040516020015260405160e060020a63ffffffff8516028152600160a060020a0390921660048301526024820152604401602060405180830381600087803b151561063b57600080fd5b6102c65a03f1151561064c57600080fd5b50505060405180515050600160a060020a03811663f2fde38b8460405160e060020a63ffffffff8416028152600160a060020a039091166004820152602401600060405180830381600087803b15156106a457600080fd5b6102c65a03f115156106b557600080fd5b50600195945050505050565b6000805433600160a060020a039081169116146106dd57600080fd5b5060005b81518110156104d4576107088282815181106106f957fe5b90602001906020020151610bc4565b6001016106e1565b6000805433600160a060020a0390811691161461072c57600080fd5b6107368383610c67565b50600192915050565b60005433600160a060020a0390811691161461075a57600080fd5b61076381610bc4565b50565b600554600160a060020a031681565b61077e33610dc7565b565b60005433600160a060020a0390811691161461079b57600080fd5b61076381610dc7565b600054600160a060020a031681565b60006107be82610e65565b92915050565b6107cc61115f565b60005433600160a060020a039081169116146107e757600080fd5b600780548060200260200160405190810160405280929190818152602001828054801561083d57602002820191906000526020600020905b8154600160a060020a0316815260019091019060200180831161081f575b505050505090505b90565b60006107be826109dd565b60008054819033600160a060020a0390811691161461087157600080fd5b600084511161087f57600080fd5b600083511161088d57600080fd5b825184511461089b57600080fd5b5060005b83518110156108e4576108dc8482815181106108b757fe5b906020019060200201518483815181106108cd57fe5b90602001906020020151610c67565b60010161089f565b600191505b5092915050565b60005433600160a060020a0390811691161461090b57600080fd5b600160a060020a038116151561092057600080fd5b600054600160a060020a0380831691167f8be0079c531659141344cd1fd0a4f28419497f9722a3daafe3b4186f6b6457e060405160405180910390a36000805473ffffffffffffffffffffffffffffffffffffffff1916600160a060020a0392909216919091179055565b60006002610997610fa6565b815481106109a157fe5b906000526020600020900154905090565b600454600160a060020a031681565b60085481565b6000828201838110156109d657fe5b9392505050565b6000806000806000806109ee610fa6565b9450600093506000925060085491508690505b6005851015610b0d576001805486908110610a1857fe5b600091825260209091200154610a34838363ffffffff6109c716565b1115610acd57610a6582600187815481101515610a4d57fe5b6000918252602090912001549063ffffffff610fea16565b9250610a77828463ffffffff6109c716565b9150610a89818463ffffffff610fea16565b9050610ac6610ab9600287815481101515610aa057fe5b600091825260209091200154859063ffffffff610ffc16565b859063ffffffff6109c716565b9350610b02565b610afb610ab9600287815481101515610ae257fe5b600091825260209091200154839063ffffffff610ffc16565b9350610b0d565b600190940193610a01565b509195945050505050565b600160a060020a03331660009081526006602052604090208054610b42903463ffffffff6109c716565b81556001810154610100900460ff161515610bae576001818101805461ff0019166101001790556007805490918101610b7b8382611171565b506000918252602090912001805473ffffffffffffffffffffffffffffffffffffffff191633600160a060020a03161790555b600181015460ff16156107635761076333611027565b600160a060020a03811660009081526006602052604090206001808201805460ff191690911790819055610100900460ff161515610c53576001818101805461ff0019166101001790556007805490918101610c208382611171565b506000918252602090912001805473ffffffffffffffffffffffffffffffffffffffff1916600160a060020a0384161790555b805460009011156104d4576104d482611027565b600454600160a060020a031681816370a0823181638da5cb5b6000604051602001526040518163ffffffff1660e060020a028152600401602060405180830381600087803b1515610cb757600080fd5b6102c65a03f11515610cc857600080fd5b5050506040518051905060006040516020015260405160e060020a63ffffffff8416028152600160a060020a039091166004820152602401602060405180830381600087803b1515610d1957600080fd5b6102c65a03f11515610d2a57600080fd5b5050506040518051905010151515610d4157600080fd5b610d4a83610bc4565b80600160a060020a031663a9059cbb848460006040516020015260405160e060020a63ffffffff8516028152600160a060020a0390921660048301526024820152604401602060405180830381600087803b1515610da757600080fd5b6102c65a03f11515610db857600080fd5b50505060405180515050505050565b600160a060020a0381166000908152600660205260408120805490918111610dee57600080fd5b60008255600160a060020a0383167f50ea9274879b4e2a584129ff0e7d656cf15144ef80e8935d4cf890390f8f15808260405190815260200160405180910390a2600160a060020a03831681156108fc0282604051600060405180830381858888f193505050501515610e6057600080fd5b505050565b600080600080600080610e76610fa6565b9450600093506000925060085491508690505b6005851015610b0d576001805486908110610ea057fe5b906000526020600020900154610ee7610eda600288815481101515610ec157fe5b600091825260209091200154849063ffffffff61114816565b849063ffffffff6109c716565b1115610f8657610f0082600187815481101515610a4d57fe5b9250610f12828463ffffffff6109c716565b9150610f4f610f42600287815481101515610f2957fe5b600091825260209091200154859063ffffffff61114816565b829063ffffffff610fea16565b9050610f7f610ab9600287815481101515610f6657fe5b600091825260209091200154839063ffffffff61114816565b9350610f9b565b610afb610ab9600287815481101515610f6657fe5b600190940193610e89565b6000805b6005811015610fe6576001805482908110610fc157fe5b9060005260206000209001546008541015610fde57809150610fe6565b600101610faa565b5090565b600082821115610ff657fe5b50900390565b60008083151561100f57600091506108e9565b5082820282848281151561101f57fe5b04146109d657fe5b600160a060020a03811660009081526006602052604081208054909161104c826109dd565b90506000811161105b57600080fd5b6000821161106857600080fd5b600183015460ff16151561107b57600080fd5b60008355600854611092908363ffffffff6109c716565b600855600554600160a060020a031682156108fc0283604051600060405180830381858888f1935050505015156110c857600080fd5b600454600160a060020a031663a9059cbb858360006040516020015260405160e060020a63ffffffff8516028152600160a060020a0390921660048301526024820152604401602060405180830381600087803b151561112757600080fd5b6102c65a03f1151561113857600080fd5b5050506040518051505050505050565b600080828481151561115657fe5b04949350505050565b60206040519081016040526000815290565b815481835581811511610e6057600083815260209020610e6091810190830161084591905b80821115610fe657600081556001016111965600a165627a7a72305820338790da5b50004352eedf7835bbe73f1e635eeb80a2b5abfe62aad6cfa5fba10029606060405260408051908101604052600981527f5844414320434f494e00000000000000000000000000000000000000000000006020820152600490805161004b929160200190610134565b5060408051908101604052600481527f584441430000000000000000000000000000000000000000000000000000000060208201526005908051610093929160200190610134565b506006805460ff1916601217905534156100ac57600080fd5b604051602080610be28339810160405280805160038054600160a060020a03191633600160a060020a03169081179091556001829055600081815260208190526040808220849055929450909250907fddf252ad1be2c89b69c2b068fc378daa952ba7f163c4a11628f55a4df523b3ef9084905190815260200160405180910390a3506101cf565b828054600181600116156101000203166002900490600052602060002090601f016020900481019282601f1061017557805160ff19168380011785556101a2565b828001600101855582156101a2579182015b828111156101a2578251825591602001919060010190610187565b506101ae9291506101b2565b5090565b6101cc91905b808211156101ae57600081556001016101b8565b90565b610a04806101de6000396000f3006060604052600436106100c45763ffffffff7c010000000000000000000000000000000000000000000000000000000060003504166306fdde0381146100c9578063095ea7b31461015357806318160ddd1461018957806323b872dd146101ae578063313ce567146101d657806366188463146101ff57806370a08231146102215780638da5cb5b1461024057806395d89b411461026f578063a9059cbb14610282578063d73dd623146102a4578063dd62ed3e146102c6578063f2fde38b146102eb575b600080fd5b34156100d457600080fd5b6100dc61030c565b60405160208082528190810183818151815260200191508051906020019080838360005b83811015610118578082015183820152602001610100565b50505050905090810190601f1680156101455780820380516001836020036101000a031916815260200191505b509250505060405180910390f35b341561015e57600080fd5b610175600160a060020a03600435166024356103aa565b604051901515815260200160405180910390f35b341561019457600080fd5b61019c610416565b60405190815260200160405180910390f35b34156101b957600080fd5b610175600160a060020a036004358116906024351660443561041c565b34156101e157600080fd5b6101e961059c565b60405160ff909116815260200160405180910390f35b341561020a57600080fd5b610175600160a060020a03600435166024356105a5565b341561022c57600080fd5b61019c600160a060020a036004351661069f565b341561024b57600080fd5b6102536106ba565b604051600160a060020a03909116815260200160405180910390f35b341561027a57600080fd5b6100dc6106c9565b341561028d57600080fd5b610175600160a060020a0360043516602435610734565b34156102af57600080fd5b610175600160a060020a0360043516602435610846565b34156102d157600080fd5b61019c600160a060020a03600435811690602435166108ea565b34156102f657600080fd5b61030a600160a060020a0360043516610915565b005b60048054600181600116156101000203166002900480601f0160208091040260200160405190810160405280929190818152602001828054600181600116156101000203166002900480156103a25780601f10610377576101008083540402835291602001916103a2565b820191906000526020600020905b81548152906001019060200180831161038557829003601f168201915b505050505081565b600160a060020a03338116600081815260026020908152604080832094871680845294909152808220859055909291907f8c5be1e5ebec7d5bd14f71427d1e84f3dd0314c0f7b2291e5b200ac8c7c3b9259085905190815260200160405180910390a350600192915050565b60015490565b6000600160a060020a038316151561043357600080fd5b600160a060020a03841660009081526020819052604090205482111561045857600080fd5b600160a060020a038085166000908152600260209081526040808320339094168352929052205482111561048b57600080fd5b600160a060020a0384166000908152602081905260409020546104b4908363ffffffff6109b016565b600160a060020a0380861660009081526020819052604080822093909355908516815220546104e9908363ffffffff6109c216565b600160a060020a038085166000908152602081815260408083209490945587831682526002815283822033909316825291909152205461052f908363ffffffff6109b016565b600160a060020a03808616600081815260026020908152604080832033861684529091529081902093909355908516917fddf252ad1be2c89b69c2b068fc378daa952ba7f163c4a11628f55a4df523b3ef9085905190815260200160405180910390a35060019392505050565b60065460ff1681565b600160a060020a0333811660009081526002602090815260408083209386168352929052908120548083111561060257600160a060020a033381166000908152600260209081526040808320938816835292905290812055610639565b610612818463ffffffff6109b016565b600160a060020a033381166000908152600260209081526040808320938916835292905220555b600160a060020a0333811660008181526002602090815260408083209489168084529490915290819020547f8c5be1e5ebec7d5bd14f71427d1e84f3dd0314c0f7b2291e5b200ac8c7c3b925915190815260200160405180910390a35060019392505050565b600160a060020a031660009081526020819052604090205490565b600354600160a060020a031681565b60058054600181600116156101000203166002900480601f0160208091040260200160405190810160405280929190818152602001828054600181600116156101000203166002900480156103a25780601f10610377576101008083540402835291602001916103a2565b6000600160a060020a038316151561074b57600080fd5b600160a060020a03331660009081526020819052604090205482111561077057600080fd5b600160a060020a033316600090815260208190526040902054610799908363ffffffff6109b016565b600160a060020a0333811660009081526020819052604080822093909355908516815220546107ce908363ffffffff6109c216565b60008085600160a060020a0316600160a060020a031681526020019081526020016000208190555082600160a060020a031633600160a060020a03167fddf252ad1be2c89b69c2b068fc378daa952ba7f163c4a11628f55a4df523b3ef8460405190815260200160405180910390a350600192915050565b600160a060020a03338116600090815260026020908152604080832093861683529290529081205461087e908363ffffffff6109c216565b600160a060020a0333811660008181526002602090815260408083209489168084529490915290819020849055919290917f8c5be1e5ebec7d5bd14f71427d1e84f3dd0314c0f7b2291e5b200ac8c7c3b92591905190815260200160405180910390a350600192915050565b600160a060020a03918216600090815260026020908152604080832093909416825291909152205490565b60035433600160a060020a0390811691161461093057600080fd5b600160a060020a038116151561094557600080fd5b600354600160a060020a0380831691167f8be0079c531659141344cd1fd0a4f28419497f9722a3daafe3b4186f6b6457e060405160405180910390a36003805473ffffffffffffffffffffffffffffffffffffffff1916600160a060020a0392909216919091179055565b6000828211156109bc57fe5b50900390565b6000828201838110156109d157fe5b93925050505600a165627a7a72305820963e00c09313bac9eb0f9ec37147870fc746090097f25a323081dc2758d806e60029",
  "source": "pragma solidity ^0.4.13;\n\nimport \"../node_modules/zeppelin-solidity/contracts/math/SafeMath.sol\";\nimport \"../node_modules/zeppelin-solidity/contracts/ownership/Ownable.sol\";\nimport \"./XdacToken.sol\";\n/**\n * @title XdacTokenCrowdsale\n */\ncontract XdacTokenCrowdsale is Ownable {\n\n    using SafeMath for uint256;\n    uint256[] roundGoals;\n    uint256[] roundRates;\n    uint256 minContribution;\n\n    // The token being sold\n    ERC20 public token;\n\n    // Address where funds are collected\n    address public wallet;\n\n    mapping(address => Contributor) public contributors;\n    //Array of the addresses who participated\n    address[] addresses;\n\n    // Amount of wei raised\n    uint256 public weiDelivered;\n\n\n    event TokenRefund(address indexed purchaser, uint256 amount);\n    event TokenPurchase(address indexed purchaser, address indexed contributor, uint256 value, uint256 amount);\n\n    struct Contributor {\n        uint256 eth;\n        bool whitelisted;\n        bool created;\n    }\n\n\n    function XdacTokenCrowdsale(\n        address _wallet,\n        uint256[] _roundGoals,\n        uint256[] _roundRates,\n        uint256 _minContribution,\n        uint256 _initial_supply\n    ) public {\n        require(_wallet != address(0));\n        require(_roundRates.length == 5);\n        require(_roundGoals.length == 5);\n        roundGoals = _roundGoals;\n        roundRates = _roundRates;\n        minContribution = _minContribution;\n        token = new XdacToken(_initial_supply);\n        wallet = _wallet;\n    }\n\n    // -----------------------------------------\n    // Crowdsale external interface\n    // -----------------------------------------\n\n    /**\n     * @dev fallback function\n     */\n    function () external payable {\n        buyTokens(msg.sender);\n    }\n\n    /**\n     * @dev token purchase\n     * @param _contributor Address performing the token purchase\n     */\n    function buyTokens(address _contributor) public payable {\n        require(_contributor != address(0));\n        require(msg.value != 0);\n        require(msg.value >= minContribution);\n        require(weiDelivered.add(msg.value) <= roundGoals[4]);\n\n        // calculate token amount to be created\n        uint256 tokens = _getTokenAmount(msg.value);\n\n        TokenPurchase(msg.sender, _contributor, msg.value, tokens);\n        _forwardFunds();\n    }\n\n    /**********internal***********/\n    function _getCurrentRound() internal view returns (uint) {\n        for (uint i = 0; i < 5; i++) {\n            if (weiDelivered < roundGoals[i]) {\n                return i;\n            }\n        }\n    }\n\n    /**\n     * @dev the way in which ether is converted to tokens.\n     * @param _weiAmount Value in wei to be converted into tokens\n     * @return Number of tokens that can be purchased with the specified _weiAmount\n     */\n    function _getTokenAmount(uint256 _weiAmount) internal view returns (uint256) {\n        uint curRound = _getCurrentRound();\n        uint256 calculatedTokenAmount = 0;\n        uint256 roundWei = 0;\n        uint256 weiRaisedIntermediate = weiDelivered;\n        uint256 weiAmount = _weiAmount;\n\n        for (curRound; curRound < 5; curRound++) {\n            if (weiRaisedIntermediate.add(weiAmount) > roundGoals[curRound]) {\n                roundWei = roundGoals[curRound].sub(weiRaisedIntermediate);\n                weiRaisedIntermediate = weiRaisedIntermediate.add(roundWei);\n                weiAmount = weiAmount.sub(roundWei);\n                calculatedTokenAmount = calculatedTokenAmount.add(roundWei.mul(roundRates[curRound]));\n            }\n            else {\n                calculatedTokenAmount = calculatedTokenAmount.add(weiAmount.mul(roundRates[curRound]));\n                break;\n            }\n        }\n        return calculatedTokenAmount;\n    }\n\n\n    /**\n     * @dev the way in which tokens is converted to ether.\n     * @param _tokenAmount Value in token to be converted into wei\n     * @return Number of ether that required to purchase with the specified _tokenAmount\n     */\n    function _getEthAmount(uint256 _tokenAmount) internal view returns (uint256) {\n        uint curRound = _getCurrentRound();\n        uint256 calculatedWeiAmount = 0;\n        uint256 roundWei = 0;\n        uint256 weiRaisedIntermediate = weiDelivered;\n        uint256 tokenAmount = _tokenAmount;\n\n        for (curRound; curRound < 5; curRound++) {\n            if(weiRaisedIntermediate.add(tokenAmount.div(roundRates[curRound])) > roundGoals[curRound]) {\n                roundWei = roundGoals[curRound].sub(weiRaisedIntermediate);\n                weiRaisedIntermediate = weiRaisedIntermediate.add(roundWei);\n                tokenAmount = tokenAmount.sub(roundWei.div(roundRates[curRound]));\n                calculatedWeiAmount = calculatedWeiAmount.add(tokenAmount.div(roundRates[curRound]));\n            }\n            else {\n                calculatedWeiAmount = calculatedWeiAmount.add(tokenAmount.div(roundRates[curRound]));\n                break;\n            }\n        }\n\n        return calculatedWeiAmount;\n    }\n\n    function _forwardFunds() internal {\n        Contributor storage contributor = contributors[msg.sender];\n        contributor.eth = contributor.eth.add(msg.value);\n        if (contributor.created == false) {\n            contributor.created = true;\n            addresses.push(msg.sender);\n        }\n        if (contributor.whitelisted) {\n            _deliverTokens(msg.sender);\n        }\n    }\n\n    function _deliverTokens(address _contributor) internal {\n        Contributor storage contributor = contributors[_contributor];\n        uint256 amountEth = contributor.eth;\n        uint256 amountToken = _getTokenAmount(amountEth);\n        require(amountToken > 0);\n        require(amountEth > 0);\n        require(contributor.whitelisted);\n        contributor.eth = 0;\n        weiDelivered = weiDelivered.add(amountEth);\n        wallet.transfer(amountEth);\n        token.transfer(_contributor, amountToken);\n    }\n\n    function _refundTokens(address _contributor) internal {\n        Contributor storage contributor = contributors[_contributor];\n        uint256 ethAmount = contributor.eth;\n        require(ethAmount > 0);\n        contributor.eth = 0;\n        TokenRefund(_contributor, ethAmount);\n        _contributor.transfer(ethAmount);\n    }\n\n    function _whitelistAddress(address _contributor) internal {\n        Contributor storage contributor = contributors[_contributor];\n        contributor.whitelisted = true;\n        if (contributor.created == false) {\n            contributor.created = true;\n            addresses.push(_contributor);\n        }\n        //Auto deliver tokens\n        if (contributor.eth > 0) {\n            _deliverTokens(_contributor);\n        }\n    }\n\n    function _sendToken(address _address, uint256 _amountTokens) internal{\n        XdacToken _token = XdacToken(token);\n        require(_token.balanceOf(_token.owner()) >= _amountTokens);\n        _whitelistAddress(_address);\n        _token.transfer(_address, _amountTokens);\n    }\n\n    /**********************owner*************************/\n\n    function whitelistAddresses(address[] _contributors) public onlyOwner {\n        for (uint256 i = 0; i < _contributors.length; i++) {\n            _whitelistAddress(_contributors[i]);\n        }\n    }\n\n\n    function whitelistAddress(address _contributor) public onlyOwner {\n        _whitelistAddress(_contributor);\n    }\n\n    function transferTokenOwnership(address _newOwner) public onlyOwner returns(bool success) {\n        XdacToken _token = XdacToken(token);\n        _token.transfer(_newOwner, _token.balanceOf(_token.owner()));\n        _token.transferOwnership(_newOwner);\n        return true;\n    }\n\n    function sendToken(address _address, uint256 _amountTokens) public onlyOwner returns(bool success) {\n        _sendToken(_address, _amountTokens);\n        return true;\n    }\n\n    function sendTokens(address[] _addresses, uint256[] _amountTokens) public onlyOwner returns(bool success) {\n        require(_addresses.length > 0);\n        require(_amountTokens.length > 0);\n        require(_addresses.length  == _amountTokens.length);\n        for (uint256 i = 0; i < _addresses.length; i++) {\n            _sendToken(_addresses[i], _amountTokens[i]);\n        }\n        return true;\n    }\n    /**\n     * @dev Refound tokens. For owner\n     */\n    function refundTokensForAddress(address _contributor) public onlyOwner {\n        _refundTokens(_contributor);\n    }\n\n\n    /**********************contributor*************************/\n\n    function getAddresses() public onlyOwner view returns (address[] )  {\n        return addresses;\n    }\n\n    /**\n    * @dev Refound tokens. For contributors\n    */\n    function refundTokens() public {\n        _refundTokens(msg.sender);\n    }\n    /**\n     * @dev Returns tokens according to rate\n     */\n    function getTokenAmount(uint256 _weiAmount) public view returns (uint256) {\n        return _getTokenAmount(_weiAmount);\n    }\n\n    /**\n     * @dev Returns ether according to rate\n     */\n    function getEthAmount(uint256 _tokenAmount) public view returns (uint256) {\n        return _getEthAmount(_tokenAmount);\n    }\n\n    function getCurrentRate() public view returns (uint256) {\n        return roundRates[_getCurrentRound()];\n    }\n}\n",
  "sourcePath": "/var/www/xdac-sandbox/contracts/XdacTokenCrowdsale.sol",
  "compiler": {
    "name": "solc",
    "version": "0.4.19+commit.c4cbbb05.Emscripten.clang"
  },
  "schemaVersion": "2.0.0",
  "updatedAt": "2018-03-22T09:32:58.839Z"
}